{
  "abi": [
    {
      "inputs": [
        {
          "internalType": "address payable",
          "name": "Creator",
          "type": "address"
        },
        {
          "internalType": "string",
          "name": "_projectTitle",
          "type": "string"
        }
      ],
      "stateMutability": "nonpayable",
      "type": "constructor"
    },
    {
      "anonymous": false,
      "inputs": [
        {
          "indexed": false,
          "internalType": "address",
          "name": "recipient",
          "type": "address"
        }
      ],
      "name": "CreatorPaid",
      "type": "event"
    },
    {
      "anonymous": false,
      "inputs": [
        {
          "indexed": false,
          "internalType": "address",
          "name": "contributor",
          "type": "address"
        },
        {
          "indexed": false,
          "internalType": "uint256",
          "name": "amount",
          "type": "uint256"
        },
        {
          "indexed": false,
          "internalType": "uint256",
          "name": "currentTotal",
          "type": "uint256"
        }
      ],
      "name": "RecieveContribution",
      "type": "event"
    },
    {
      "inputs": [],
      "name": "State",
      "outputs": [
        {
          "internalType": "enum ProjectCreated.ProjectState",
          "name": "",
          "type": "uint8"
        }
      ],
      "stateMutability": "view",
      "type": "function"
    },
    {
      "inputs": [
        {
          "internalType": "uint256",
          "name": "amount",
          "type": "uint256"
        }
      ],
      "name": "contributeFunds",
      "outputs": [],
      "stateMutability": "payable",
      "type": "function"
    },
    {
      "inputs": [
        {
          "internalType": "uint256",
          "name": "",
          "type": "uint256"
        }
      ],
      "name": "contributors",
      "outputs": [
        {
          "internalType": "address",
          "name": "",
          "type": "address"
        }
      ],
      "stateMutability": "view",
      "type": "function"
    },
    {
      "inputs": [
        {
          "internalType": "address",
          "name": "_contributors",
          "type": "address"
        }
      ],
      "name": "getDetails",
      "outputs": [
        {
          "components": [
            {
              "internalType": "uint256",
              "name": "goalAmount",
              "type": "uint256"
            },
            {
              "internalType": "uint256",
              "name": "currentRaised",
              "type": "uint256"
            },
            {
              "internalType": "address",
              "name": "contributor",
              "type": "address"
            },
            {
              "internalType": "uint40",
              "name": "raisingDeadline",
              "type": "uint40"
            }
          ],
          "internalType": "struct ProjectCreated.Funding",
          "name": "funds",
          "type": "tuple"
        }
      ],
      "stateMutability": "view",
      "type": "function"
    },
    {
      "inputs": [],
      "name": "payout",
      "outputs": [
        {
          "internalType": "bool",
          "name": "result",
          "type": "bool"
        }
      ],
      "stateMutability": "nonpayable",
      "type": "function"
    }
  ],
  "bytecode": {
    "object": "0x6080604052600080546001600160a01b031916733883f5e181fccaf8410fa61e12b59bad963fb6451790556004805460ff191690553480156200004157600080fd5b5060405162000a4138038062000a41833981016040819052620000649162000159565b600180546001600160a01b0319166001600160a01b0384161790558051620000949060039060208401906200009d565b50505062000295565b828054620000ab9062000259565b90600052602060002090601f016020900481019282620000cf57600085556200011a565b82601f10620000ea57805160ff19168380011785556200011a565b828001600101855582156200011a579182015b828111156200011a578251825591602001919060010190620000fd565b50620001289291506200012c565b5090565b5b808211156200012857600081556001016200012d565b634e487b7160e01b600052604160045260246000fd5b600080604083850312156200016d57600080fd5b82516001600160a01b03811681146200018557600080fd5b602084810151919350906001600160401b0380821115620001a557600080fd5b818601915086601f830112620001ba57600080fd5b815181811115620001cf57620001cf62000143565b604051601f8201601f19908116603f01168101908382118183101715620001fa57620001fa62000143565b8160405282815289868487010111156200021357600080fd5b600093505b8284101562000237578484018601518185018701529285019262000218565b82841115620002495760008684830101525b8096505050505050509250929050565b600181811c908216806200026e57607f821691505b6020821081036200028f57634e487b7160e01b600052602260045260246000fd5b50919050565b61079c80620002a56000396000f3fe60806040526004361061005a5760003560e01c806348a051321161004357806348a05132146101b557806363bd1d4a146101ca578063f1b6dccd146101ef57600080fd5b806330289c611461005f5780633cb5d10014610170575b600080fd5b34801561006b57600080fd5b5061011761007a366004610620565b6040805160808101825260008082526020820181905291810182905260608101919091525073ffffffffffffffffffffffffffffffffffffffff90811660009081526006602090815260409182902082516080810184528154815260018201549281019290925260020154928316918101919091527401000000000000000000000000000000000000000090910464ffffffffff16606082015290565b6040516101679190815181526020808301519082015260408083015173ffffffffffffffffffffffffffffffffffffffff169082015260609182015164ffffffffff169181019190915260800190565b60405180910390f35b34801561017c57600080fd5b5061019061018b36600461065d565b610216565b60405173ffffffffffffffffffffffffffffffffffffffff9091168152602001610167565b6101c86101c336600461065d565b61024d565b005b3480156101d657600080fd5b506101df610464565b6040519015158152602001610167565b3480156101fb57600080fd5b506004546102099060ff1681565b60405161016791906106a5565b6002818154811061022657600080fd5b60009182526020909120015473ffffffffffffffffffffffffffffffffffffffff16905081565b60008060045460ff16600281111561026757610267610676565b1461027157600080fd5b6000546040517f23b872dd0000000000000000000000000000000000000000000000000000000081523360048201523060248201526044810184905273ffffffffffffffffffffffffffffffffffffffff909116906323b872dd906064016020604051808303816000875af11580156102ee573d6000803e3d6000fd5b505050506040513d601f19601f8201168201806040525081019061031291906106e6565b503360009081526005602052604081208054849290610332908490610737565b90915550503360009081526006602052604081206001810180549192859261035b908490610737565b9091555061036e90504262069780610737565b6002828101805464ffffffffff9390931674010000000000000000000000000000000000000000027fffffffffffffff0000000000ffffffffffffffffffffffffffffffffffffffff909316929092179091558054600181810183556000929092527f405787fa12a823e0f2b7631cc41b3ba8828b3321ca811111fa75cd3aa3bb5ace0180547fffffffffffffffffffffffff000000000000000000000000000000000000000016339081179091559082015460408051928352602083018690528201527f93dc022a09a59d52164dbb6c3432c6641a6cadf60c50cc70674710223de05e239060600160405180910390a1505050565b60015460009073ffffffffffffffffffffffffffffffffffffffff16331461048b57600080fd5b3360009081526006602090815260408083206001810180549085905530855260059093529083208054919383926104c390849061074f565b90915550506000546040517fa9059cbb0000000000000000000000000000000000000000000000000000000081523360048201526024810183905273ffffffffffffffffffffffffffffffffffffffff9091169063a9059cbb906044016020604051808303816000875af115801561053f573d6000803e3d6000fd5b505050506040513d601f19601f8201168201806040525081019061056391906106e6565b156105e85760015460405173ffffffffffffffffffffffffffffffffffffffff90911681527f2f256415efc8561af8db667cb242964b19be7380f379ccdafaa0e54a6f6b70699060200160405180910390a15050600480547fffffffffffffffffffffffffffffffffffffffffffffffffffffffffffffff0016600217905550600190565b6001919091015550600480547fffffffffffffffffffffffffffffffffffffffffffffffffffffffffffffff00166002179055600090565b60006020828403121561063257600080fd5b813573ffffffffffffffffffffffffffffffffffffffff8116811461065657600080fd5b9392505050565b60006020828403121561066f57600080fd5b5035919050565b7f4e487b7100000000000000000000000000000000000000000000000000000000600052602160045260246000fd5b60208101600383106106e0577f4e487b7100000000000000000000000000000000000000000000000000000000600052602160045260246000fd5b91905290565b6000602082840312156106f857600080fd5b8151801515811461065657600080fd5b7f4e487b7100000000000000000000000000000000000000000000000000000000600052601160045260246000fd5b6000821982111561074a5761074a610708565b500190565b60008282101561076157610761610708565b50039056fea2646970667358221220769ebac4bf2d81daf765e7c11455a760d5b64334596c419887e074f1e408945764736f6c634300080d0033",
    "linkReferences": {}
  }
}