{
  "abi": [
    {
      "anonymous": false,
      "inputs": [
        {
          "indexed": false,
          "internalType": "address",
          "name": "contractAddress",
          "type": "address"
        },
        {
          "indexed": false,
          "internalType": "address",
          "name": "creator",
          "type": "address"
        },
        {
          "indexed": false,
          "internalType": "string",
          "name": "title",
          "type": "string"
        },
        {
          "indexed": false,
          "internalType": "uint256",
          "name": "goalamount",
          "type": "uint256"
        },
        {
          "indexed": false,
          "internalType": "uint256",
          "name": "deadline",
          "type": "uint256"
        }
      ],
      "name": "ProjectStarted",
      "type": "event"
    },
    {
      "inputs": [
        {
          "internalType": "uint256",
          "name": "index",
          "type": "uint256"
        }
      ],
      "name": "getCreatedProjects",
      "outputs": [
        {
          "components": [
            {
              "internalType": "uint256",
              "name": "goalAmount",
              "type": "uint256"
            },
            {
              "internalType": "string",
              "name": "projectName",
              "type": "string"
            },
            {
              "internalType": "uint256",
              "name": "fundsRaisingDeadline",
              "type": "uint256"
            }
          ],
          "internalType": "struct CrowdFund.createdProject[]",
          "name": "cp",
          "type": "tuple[]"
        }
      ],
      "stateMutability": "view",
      "type": "function"
    },
    {
      "inputs": [
        {
          "components": [
            {
              "internalType": "uint256",
              "name": "goalAmount",
              "type": "uint256"
            },
            {
              "internalType": "string",
              "name": "projectName",
              "type": "string"
            },
            {
              "internalType": "uint256",
              "name": "fundsRaisingDeadline",
              "type": "uint256"
            }
          ],
          "internalType": "struct CrowdFund.createdProject",
          "name": "pr",
          "type": "tuple"
        }
      ],
      "name": "startProject",
      "outputs": [],
      "stateMutability": "nonpayable",
      "type": "function"
    }
  ],
  "bytecode": {
    "object": "0x608060405234801561001057600080fd5b5061085d806100206000396000f3fe608060405234801561001057600080fd5b50600436106100365760003560e01c80630c14e0021461003b578063aa22ec7a14610064575b600080fd5b61004e610049366004610343565b610079565b60405161005b919061035c565b60405180910390f35b6100776100723660046104fa565b610203565b005b606081600154111561008d5761008d6105e5565b8167ffffffffffffffff8111156100a6576100a6610453565b6040519080825280602002602001820160405280156100fb57816020015b6100e860405180606001604052806000815260200160608152602001600081525090565b8152602001906001900390816100c45790505b50905060005b828110156101fd57600260008281526020019081526020016000206040518060600160405290816000820154815260200160018201805461014190610614565b80601f016020809104026020016040519081016040528092919081815260200182805461016d90610614565b80156101ba5780601f1061018f576101008083540402835291602001916101ba565b820191906000526020600020905b81548152906001019060200180831161019d57829003601f168201915b505050505081526020016002820154815250508282815181106101df576101df610661565b602002602001018190525080806101f5906106bf565b915050610101565b50919050565b60015460009081526002602052604090208151815561022542620697806106f7565b5060408201516002820155602080830151805161024892600185019201906102aa565b5060018054906000610259836106bf565b9091555050805460028201546040517fcf20230d713b121a981200eca27acd1036567994e10712e628bec2ba1352740f9261029e92309233926001880192909161070f565b60405180910390a15050565b8280546102b690610614565b90600052602060002090601f0160209004810192826102d8576000855561031e565b82601f106102f157805160ff191683800117855561031e565b8280016001018555821561031e579182015b8281111561031e578251825591602001919060010190610303565b5061032a92915061032e565b5090565b5b8082111561032a576000815560010161032f565b60006020828403121561035557600080fd5b5035919050565b60006020808301818452808551808352604092508286019150828160051b8701018488016000805b84811015610444577fffffffffffffffffffffffffffffffffffffffffffffffffffffffffffffffc08a8503018652825160608151865289820151818b880152805180838901528592505b808310156103ed578183018c015188840160800152918b01916103cf565b808311156103fe57856080828a0101525b928a0151878b0152505095880195601f017fffffffffffffffffffffffffffffffffffffffffffffffffffffffffffffffe0169093016080019291870191600101610384565b50919998505050505050505050565b7f4e487b7100000000000000000000000000000000000000000000000000000000600052604160045260246000fd5b6040516060810167ffffffffffffffff811182821017156104a5576104a5610453565b60405290565b604051601f82017fffffffffffffffffffffffffffffffffffffffffffffffffffffffffffffffe016810167ffffffffffffffff811182821017156104f2576104f2610453565b604052919050565b6000602080838503121561050d57600080fd5b823567ffffffffffffffff8082111561052557600080fd5b908401906060828703121561053957600080fd5b610541610482565b82358152838301358281111561055657600080fd5b8301601f8101881361056757600080fd5b80358381111561057957610579610453565b6105a9867fffffffffffffffffffffffffffffffffffffffffffffffffffffffffffffffe0601f840116016104ab565b935080845288868284010111156105bf57600080fd5b808683018786013760009084018601525092830152604090810135908201529392505050565b7f4e487b7100000000000000000000000000000000000000000000000000000000600052600160045260246000fd5b600181811c9082168061062857607f821691505b6020821081036101fd577f4e487b7100000000000000000000000000000000000000000000000000000000600052602260045260246000fd5b7f4e487b7100000000000000000000000000000000000000000000000000000000600052603260045260246000fd5b7f4e487b7100000000000000000000000000000000000000000000000000000000600052601160045260246000fd5b60007fffffffffffffffffffffffffffffffffffffffffffffffffffffffffffffffff82036106f0576106f0610690565b5060010190565b6000821982111561070a5761070a610690565b500190565b600073ffffffffffffffffffffffffffffffffffffffff808816835260208188168185015260a0604085015260009150865482600182811c91508083168061075857607f831692505b848310810361078e577f4e487b710000000000000000000000000000000000000000000000000000000086526022600452602486fd5b60a0880183905260c088018180156107ad57600181146107dc57610807565b7fffffffffffffffffffffffffffffffffffffffffffffffffffffffffffffff00861682528682019750610807565b60008d81526020902060005b86811015610801578154848201529085019088016107e8565b83019850505b50505050506060850196909652506080909201929092529594505050505056fea2646970667358221220aa4134495284be3c9edaff1664f743a103b7464e803365e23098b268f86f045964736f6c634300080d0033",
    "linkReferences": {}
  }
}