{
  "abi": [
    {
      "inputs": [
        {
          "internalType": "string",
          "name": "name_",
          "type": "string"
        },
        {
          "internalType": "string",
          "name": "symbol_",
          "type": "string"
        }
      ],
      "stateMutability": "nonpayable",
      "type": "constructor"
    },
    {
      "anonymous": false,
      "inputs": [
        {
          "indexed": true,
          "internalType": "address",
          "name": "owner",
          "type": "address"
        },
        {
          "indexed": true,
          "internalType": "address",
          "name": "approved",
          "type": "address"
        },
        {
          "indexed": true,
          "internalType": "uint256",
          "name": "tokenId",
          "type": "uint256"
        }
      ],
      "name": "Approval",
      "type": "event"
    },
    {
      "anonymous": false,
      "inputs": [
        {
          "indexed": true,
          "internalType": "address",
          "name": "owner",
          "type": "address"
        },
        {
          "indexed": true,
          "internalType": "address",
          "name": "operator",
          "type": "address"
        },
        {
          "indexed": false,
          "internalType": "bool",
          "name": "approved",
          "type": "bool"
        }
      ],
      "name": "ApprovalForAll",
      "type": "event"
    },
    {
      "anonymous": false,
      "inputs": [
        {
          "indexed": true,
          "internalType": "address",
          "name": "from",
          "type": "address"
        },
        {
          "indexed": true,
          "internalType": "address",
          "name": "to",
          "type": "address"
        },
        {
          "indexed": true,
          "internalType": "uint256",
          "name": "tokenId",
          "type": "uint256"
        }
      ],
      "name": "Transfer",
      "type": "event"
    },
    {
      "inputs": [
        {
          "internalType": "address",
          "name": "to",
          "type": "address"
        },
        {
          "internalType": "uint256",
          "name": "tokenId",
          "type": "uint256"
        }
      ],
      "name": "approve",
      "outputs": [],
      "stateMutability": "nonpayable",
      "type": "function"
    },
    {
      "inputs": [
        {
          "internalType": "address",
          "name": "owner",
          "type": "address"
        }
      ],
      "name": "balanceOf",
      "outputs": [
        {
          "internalType": "uint256",
          "name": "",
          "type": "uint256"
        }
      ],
      "stateMutability": "view",
      "type": "function"
    },
    {
      "inputs": [
        {
          "internalType": "uint256",
          "name": "tokenId",
          "type": "uint256"
        }
      ],
      "name": "getApproved",
      "outputs": [
        {
          "internalType": "address",
          "name": "",
          "type": "address"
        }
      ],
      "stateMutability": "view",
      "type": "function"
    },
    {
      "inputs": [
        {
          "internalType": "address",
          "name": "owner",
          "type": "address"
        },
        {
          "internalType": "address",
          "name": "operator",
          "type": "address"
        }
      ],
      "name": "isApprovedForAll",
      "outputs": [
        {
          "internalType": "bool",
          "name": "",
          "type": "bool"
        }
      ],
      "stateMutability": "view",
      "type": "function"
    },
    {
      "inputs": [],
      "name": "name",
      "outputs": [
        {
          "internalType": "string",
          "name": "",
          "type": "string"
        }
      ],
      "stateMutability": "view",
      "type": "function"
    },
    {
      "inputs": [
        {
          "internalType": "uint256",
          "name": "tokenId",
          "type": "uint256"
        }
      ],
      "name": "ownerOf",
      "outputs": [
        {
          "internalType": "address",
          "name": "",
          "type": "address"
        }
      ],
      "stateMutability": "view",
      "type": "function"
    },
    {
      "inputs": [
        {
          "internalType": "address",
          "name": "from",
          "type": "address"
        },
        {
          "internalType": "address",
          "name": "to",
          "type": "address"
        },
        {
          "internalType": "uint256",
          "name": "tokenId",
          "type": "uint256"
        }
      ],
      "name": "safeTransferFrom",
      "outputs": [],
      "stateMutability": "nonpayable",
      "type": "function"
    },
    {
      "inputs": [
        {
          "internalType": "address",
          "name": "from",
          "type": "address"
        },
        {
          "internalType": "address",
          "name": "to",
          "type": "address"
        },
        {
          "internalType": "uint256",
          "name": "tokenId",
          "type": "uint256"
        },
        {
          "internalType": "bytes",
          "name": "_data",
          "type": "bytes"
        }
      ],
      "name": "safeTransferFrom",
      "outputs": [],
      "stateMutability": "nonpayable",
      "type": "function"
    },
    {
      "inputs": [
        {
          "internalType": "address",
          "name": "operator",
          "type": "address"
        },
        {
          "internalType": "bool",
          "name": "approved",
          "type": "bool"
        }
      ],
      "name": "setApprovalForAll",
      "outputs": [],
      "stateMutability": "nonpayable",
      "type": "function"
    },
    {
      "inputs": [
        {
          "internalType": "bytes4",
          "name": "interfaceId",
          "type": "bytes4"
        }
      ],
      "name": "supportsInterface",
      "outputs": [
        {
          "internalType": "bool",
          "name": "",
          "type": "bool"
        }
      ],
      "stateMutability": "view",
      "type": "function"
    },
    {
      "inputs": [],
      "name": "symbol",
      "outputs": [
        {
          "internalType": "string",
          "name": "",
          "type": "string"
        }
      ],
      "stateMutability": "view",
      "type": "function"
    },
    {
      "inputs": [
        {
          "internalType": "uint256",
          "name": "tokenId",
          "type": "uint256"
        }
      ],
      "name": "tokenURI",
      "outputs": [
        {
          "internalType": "string",
          "name": "",
          "type": "string"
        }
      ],
      "stateMutability": "view",
      "type": "function"
    },
    {
      "inputs": [
        {
          "internalType": "address",
          "name": "from",
          "type": "address"
        },
        {
          "internalType": "address",
          "name": "to",
          "type": "address"
        },
        {
          "internalType": "uint256",
          "name": "tokenId",
          "type": "uint256"
        }
      ],
      "name": "transferFrom",
      "outputs": [],
      "stateMutability": "nonpayable",
      "type": "function"
    }
  ],
  "bytecode": {
    "object": "0x60806040523480156200001157600080fd5b5060405162001bbf38038062001bbf8339810160408190526200003491620001db565b81516200004990600090602085019062000068565b5080516200005f90600190602084019062000068565b50505062000281565b828054620000769062000245565b90600052602060002090601f0160209004810192826200009a5760008555620000e5565b82601f10620000b557805160ff1916838001178555620000e5565b82800160010185558215620000e5579182015b82811115620000e5578251825591602001919060010190620000c8565b50620000f3929150620000f7565b5090565b5b80821115620000f35760008155600101620000f8565b634e487b7160e01b600052604160045260246000fd5b600082601f8301126200013657600080fd5b81516001600160401b03808211156200015357620001536200010e565b604051601f8301601f19908116603f011681019082821181831017156200017e576200017e6200010e565b816040528381526020925086838588010111156200019b57600080fd5b600091505b83821015620001bf5785820183015181830184015290820190620001a0565b83821115620001d15760008385830101525b9695505050505050565b60008060408385031215620001ef57600080fd5b82516001600160401b03808211156200020757600080fd5b620002158683870162000124565b935060208501519150808211156200022c57600080fd5b506200023b8582860162000124565b9150509250929050565b600181811c908216806200025a57607f821691505b6020821081036200027b57634e487b7160e01b600052602260045260246000fd5b50919050565b61192e80620002916000396000f3fe608060405234801561001057600080fd5b50600436106100df5760003560e01c80636352211e1161008c578063a22cb46511610066578063a22cb465146101d0578063b88d4fde146101e3578063c87b56dd146101f6578063e985e9c51461020957600080fd5b80636352211e1461019457806370a08231146101a757806395d89b41146101c857600080fd5b8063095ea7b3116100bd578063095ea7b31461015957806323b872dd1461016e57806342842e0e1461018157600080fd5b806301ffc9a7146100e457806306fdde031461010c578063081812fc14610121575b600080fd5b6100f76100f23660046113f3565b610252565b60405190151581526020015b60405180910390f35b610114610337565b6040516101039190611486565b61013461012f366004611499565b6103c9565b60405173ffffffffffffffffffffffffffffffffffffffff9091168152602001610103565b61016c6101673660046114db565b6104a8565b005b61016c61017c366004611505565b610634565b61016c61018f366004611505565b6106d5565b6101346101a2366004611499565b6106f0565b6101ba6101b5366004611541565b6107a2565b604051908152602001610103565b610114610870565b61016c6101de36600461155c565b61087f565b61016c6101f13660046115c7565b61088e565b610114610204366004611499565b610936565b6100f76102173660046116c1565b73ffffffffffffffffffffffffffffffffffffffff918216600090815260056020908152604080832093909416825291909152205460ff1690565b60007fffffffff0000000000000000000000000000000000000000000000000000000082167f80ac58cd0000000000000000000000000000000000000000000000000000000014806102e557507fffffffff0000000000000000000000000000000000000000000000000000000082167f5b5e139f00000000000000000000000000000000000000000000000000000000145b8061033157507f01ffc9a7000000000000000000000000000000000000000000000000000000007fffffffff000000000000000000000000000000000000000000000000000000008316145b92915050565b606060008054610346906116f4565b80601f0160208091040260200160405190810160405280929190818152602001828054610372906116f4565b80156103bf5780601f10610394576101008083540402835291602001916103bf565b820191906000526020600020905b8154815290600101906020018083116103a257829003601f168201915b5050505050905090565b60008181526002602052604081205473ffffffffffffffffffffffffffffffffffffffff1661047f576040517f08c379a000000000000000000000000000000000000000000000000000000000815260206004820152602c60248201527f4552433732313a20617070726f76656420717565727920666f72206e6f6e657860448201527f697374656e7420746f6b656e000000000000000000000000000000000000000060648201526084015b60405180910390fd5b5060009081526004602052604090205473ffffffffffffffffffffffffffffffffffffffff1690565b60006104b3826106f0565b90508073ffffffffffffffffffffffffffffffffffffffff168373ffffffffffffffffffffffffffffffffffffffff1603610570576040517f08c379a000000000000000000000000000000000000000000000000000000000815260206004820152602160248201527f4552433732313a20617070726f76616c20746f2063757272656e74206f776e6560448201527f72000000000000000000000000000000000000000000000000000000000000006064820152608401610476565b3373ffffffffffffffffffffffffffffffffffffffff8216148061059957506105998133610217565b610625576040517f08c379a000000000000000000000000000000000000000000000000000000000815260206004820152603860248201527f4552433732313a20617070726f76652063616c6c6572206973206e6f74206f7760448201527f6e6572206e6f7220617070726f76656420666f7220616c6c00000000000000006064820152608401610476565b61062f8383610a53565b505050565b61063e3382610af3565b6106ca576040517f08c379a000000000000000000000000000000000000000000000000000000000815260206004820152603160248201527f4552433732313a207472616e736665722063616c6c6572206973206e6f74206f60448201527f776e6572206e6f7220617070726f7665640000000000000000000000000000006064820152608401610476565b61062f838383610c63565b61062f8383836040518060200160405280600081525061088e565b60008181526002602052604081205473ffffffffffffffffffffffffffffffffffffffff1680610331576040517f08c379a000000000000000000000000000000000000000000000000000000000815260206004820152602960248201527f4552433732313a206f776e657220717565727920666f72206e6f6e657869737460448201527f656e7420746f6b656e00000000000000000000000000000000000000000000006064820152608401610476565b600073ffffffffffffffffffffffffffffffffffffffff8216610847576040517f08c379a000000000000000000000000000000000000000000000000000000000815260206004820152602960248201527f4552433732313a2061646472657373207a65726f206973206e6f74206120766160448201527f6c6964206f776e657200000000000000000000000000000000000000000000006064820152608401610476565b5073ffffffffffffffffffffffffffffffffffffffff1660009081526003602052604090205490565b606060018054610346906116f4565b61088a338383610eca565b5050565b6108983383610af3565b610924576040517f08c379a000000000000000000000000000000000000000000000000000000000815260206004820152603160248201527f4552433732313a207472616e736665722063616c6c6572206973206e6f74206f60448201527f776e6572206e6f7220617070726f7665640000000000000000000000000000006064820152608401610476565b61093084848484610ff7565b50505050565b60008181526002602052604090205460609073ffffffffffffffffffffffffffffffffffffffff166109ea576040517f08c379a000000000000000000000000000000000000000000000000000000000815260206004820152602f60248201527f4552433732314d657461646174613a2055524920717565727920666f72206e6f60448201527f6e6578697374656e7420746f6b656e00000000000000000000000000000000006064820152608401610476565b6000610a0160408051602081019091526000815290565b90506000815111610a215760405180602001604052806000815250610a4c565b80610a2b8461109a565b604051602001610a3c929190611747565b6040516020818303038152906040525b9392505050565b600081815260046020526040902080547fffffffffffffffffffffffff00000000000000000000000000000000000000001673ffffffffffffffffffffffffffffffffffffffff84169081179091558190610aad826106f0565b73ffffffffffffffffffffffffffffffffffffffff167f8c5be1e5ebec7d5bd14f71427d1e84f3dd0314c0f7b2291e5b200ac8c7c3b92560405160405180910390a45050565b60008181526002602052604081205473ffffffffffffffffffffffffffffffffffffffff16610ba4576040517f08c379a000000000000000000000000000000000000000000000000000000000815260206004820152602c60248201527f4552433732313a206f70657261746f7220717565727920666f72206e6f6e657860448201527f697374656e7420746f6b656e00000000000000000000000000000000000000006064820152608401610476565b6000610baf836106f0565b90508073ffffffffffffffffffffffffffffffffffffffff168473ffffffffffffffffffffffffffffffffffffffff161480610c1d575073ffffffffffffffffffffffffffffffffffffffff80821660009081526005602090815260408083209388168352929052205460ff165b80610c5b57508373ffffffffffffffffffffffffffffffffffffffff16610c43846103c9565b73ffffffffffffffffffffffffffffffffffffffff16145b949350505050565b8273ffffffffffffffffffffffffffffffffffffffff16610c83826106f0565b73ffffffffffffffffffffffffffffffffffffffff1614610d26576040517f08c379a000000000000000000000000000000000000000000000000000000000815260206004820152602560248201527f4552433732313a207472616e736665722066726f6d20696e636f72726563742060448201527f6f776e65720000000000000000000000000000000000000000000000000000006064820152608401610476565b73ffffffffffffffffffffffffffffffffffffffff8216610dc8576040517f08c379a0000000000000000000000000000000000000000000000000000000008152602060048201526024808201527f4552433732313a207472616e7366657220746f20746865207a65726f2061646460448201527f72657373000000000000000000000000000000000000000000000000000000006064820152608401610476565b610dd3600082610a53565b73ffffffffffffffffffffffffffffffffffffffff83166000908152600360205260408120805460019290610e099084906117a5565b909155505073ffffffffffffffffffffffffffffffffffffffff82166000908152600360205260408120805460019290610e449084906117bc565b909155505060008181526002602052604080822080547fffffffffffffffffffffffff00000000000000000000000000000000000000001673ffffffffffffffffffffffffffffffffffffffff86811691821790925591518493918716917fddf252ad1be2c89b69c2b068fc378daa952ba7f163c4a11628f55a4df523b3ef91a4505050565b8173ffffffffffffffffffffffffffffffffffffffff168373ffffffffffffffffffffffffffffffffffffffff1603610f5f576040517f08c379a000000000000000000000000000000000000000000000000000000000815260206004820152601960248201527f4552433732313a20617070726f766520746f2063616c6c6572000000000000006044820152606401610476565b73ffffffffffffffffffffffffffffffffffffffff83811660008181526005602090815260408083209487168084529482529182902080547fffffffffffffffffffffffffffffffffffffffffffffffffffffffffffffff001686151590811790915591519182527f17307eab39ab6107e8899845ad3d59bd9653f200f220920489ca2b5937696c31910160405180910390a3505050565b611002848484610c63565b61100e848484846111cf565b610930576040517f08c379a000000000000000000000000000000000000000000000000000000000815260206004820152603260248201527f4552433732313a207472616e7366657220746f206e6f6e20455243373231526560448201527f63656976657220696d706c656d656e74657200000000000000000000000000006064820152608401610476565b6060816000036110dd57505060408051808201909152600181527f3000000000000000000000000000000000000000000000000000000000000000602082015290565b8160005b811561110757806110f1816117d4565b91506111009050600a8361183b565b91506110e1565b60008167ffffffffffffffff81111561112257611122611598565b6040519080825280601f01601f19166020018201604052801561114c576020820181803683370190505b5090505b8415610c5b576111616001836117a5565b915061116e600a8661184f565b6111799060306117bc565b60f81b81838151811061118e5761118e611863565b60200101907effffffffffffffffffffffffffffffffffffffffffffffffffffffffffffff1916908160001a9053506111c8600a8661183b565b9450611150565b600073ffffffffffffffffffffffffffffffffffffffff84163b156113b7576040517f150b7a0200000000000000000000000000000000000000000000000000000000815273ffffffffffffffffffffffffffffffffffffffff85169063150b7a0290611246903390899088908890600401611892565b6020604051808303816000875af192505050801561129f575060408051601f3d9081017fffffffffffffffffffffffffffffffffffffffffffffffffffffffffffffffe016820190925261129c918101906118db565b60015b61136c573d8080156112cd576040519150601f19603f3d011682016040523d82523d6000602084013e6112d2565b606091505b508051600003611364576040517f08c379a000000000000000000000000000000000000000000000000000000000815260206004820152603260248201527f4552433732313a207472616e7366657220746f206e6f6e20455243373231526560448201527f63656976657220696d706c656d656e74657200000000000000000000000000006064820152608401610476565b805181602001fd5b7fffffffff00000000000000000000000000000000000000000000000000000000167f150b7a0200000000000000000000000000000000000000000000000000000000149050610c5b565b506001949350505050565b7fffffffff00000000000000000000000000000000000000000000000000000000811681146113f057600080fd5b50565b60006020828403121561140557600080fd5b8135610a4c816113c2565b60005b8381101561142b578181015183820152602001611413565b838111156109305750506000910152565b60008151808452611454816020860160208601611410565b601f017fffffffffffffffffffffffffffffffffffffffffffffffffffffffffffffffe0169290920160200192915050565b602081526000610a4c602083018461143c565b6000602082840312156114ab57600080fd5b5035919050565b803573ffffffffffffffffffffffffffffffffffffffff811681146114d657600080fd5b919050565b600080604083850312156114ee57600080fd5b6114f7836114b2565b946020939093013593505050565b60008060006060848603121561151a57600080fd5b611523846114b2565b9250611531602085016114b2565b9150604084013590509250925092565b60006020828403121561155357600080fd5b610a4c826114b2565b6000806040838503121561156f57600080fd5b611578836114b2565b91506020830135801515811461158d57600080fd5b809150509250929050565b7f4e487b7100000000000000000000000000000000000000000000000000000000600052604160045260246000fd5b600080600080608085870312156115dd57600080fd5b6115e6856114b2565b93506115f4602086016114b2565b925060408501359150606085013567ffffffffffffffff8082111561161857600080fd5b818701915087601f83011261162c57600080fd5b81358181111561163e5761163e611598565b604051601f82017fffffffffffffffffffffffffffffffffffffffffffffffffffffffffffffffe0908116603f0116810190838211818310171561168457611684611598565b816040528281528a602084870101111561169d57600080fd5b82602086016020830137600060208483010152809550505050505092959194509250565b600080604083850312156116d457600080fd5b6116dd836114b2565b91506116eb602084016114b2565b90509250929050565b600181811c9082168061170857607f821691505b602082108103611741577f4e487b7100000000000000000000000000000000000000000000000000000000600052602260045260246000fd5b50919050565b60008351611759818460208801611410565b83519083019061176d818360208801611410565b01949350505050565b7f4e487b7100000000000000000000000000000000000000000000000000000000600052601160045260246000fd5b6000828210156117b7576117b7611776565b500390565b600082198211156117cf576117cf611776565b500190565b60007fffffffffffffffffffffffffffffffffffffffffffffffffffffffffffffffff820361180557611805611776565b5060010190565b7f4e487b7100000000000000000000000000000000000000000000000000000000600052601260045260246000fd5b60008261184a5761184a61180c565b500490565b60008261185e5761185e61180c565b500690565b7f4e487b7100000000000000000000000000000000000000000000000000000000600052603260045260246000fd5b600073ffffffffffffffffffffffffffffffffffffffff8087168352808616602084015250836040830152608060608301526118d1608083018461143c565b9695505050505050565b6000602082840312156118ed57600080fd5b8151610a4c816113c256fea26469706673582212204ec24ea5ba9b3a8e5870434b37070f87984cf07e83947760746a4c32c7d4da7464736f6c634300080d0033",
    "linkReferences": {}
  }
}