{
  "abi": [
    {
      "inputs": [
        {
          "internalType": "address",
          "name": "_VRFCoordinator",
          "type": "address"
        },
        {
          "internalType": "address",
          "name": "_LinkToken",
          "type": "address"
        },
        {
          "internalType": "bytes32",
          "name": "_keyhash",
          "type": "bytes32"
        },
        {
          "internalType": "uint256",
          "name": "_fee",
          "type": "uint256"
        }
      ],
      "stateMutability": "nonpayable",
      "type": "constructor"
    },
    {
      "inputs": [],
      "name": "noRandomNumberYet",
      "type": "error"
    },
    {
      "inputs": [],
      "name": "notEnoughLink",
      "type": "error"
    },
    {
      "inputs": [],
      "name": "notOwner",
      "type": "error"
    },
    {
      "inputs": [],
      "name": "tokenIDnotMinted",
      "type": "error"
    },
    {
      "inputs": [],
      "name": "tokenURINotSet",
      "type": "error"
    },
    {
      "anonymous": false,
      "inputs": [
        {
          "indexed": true,
          "internalType": "address",
          "name": "owner",
          "type": "address"
        },
        {
          "indexed": true,
          "internalType": "address",
          "name": "approved",
          "type": "address"
        },
        {
          "indexed": true,
          "internalType": "uint256",
          "name": "tokenId",
          "type": "uint256"
        }
      ],
      "name": "Approval",
      "type": "event"
    },
    {
      "anonymous": false,
      "inputs": [
        {
          "indexed": true,
          "internalType": "address",
          "name": "owner",
          "type": "address"
        },
        {
          "indexed": true,
          "internalType": "address",
          "name": "operator",
          "type": "address"
        },
        {
          "indexed": false,
          "internalType": "bool",
          "name": "approved",
          "type": "bool"
        }
      ],
      "name": "ApprovalForAll",
      "type": "event"
    },
    {
      "anonymous": false,
      "inputs": [
        {
          "indexed": true,
          "internalType": "uint256",
          "name": "tokenId",
          "type": "uint256"
        },
        {
          "indexed": false,
          "internalType": "string",
          "name": "tokenURI",
          "type": "string"
        }
      ],
      "name": "CreatedRandomSVGNFT",
      "type": "event"
    },
    {
      "anonymous": false,
      "inputs": [
        {
          "indexed": true,
          "internalType": "bytes32",
          "name": "requestId",
          "type": "bytes32"
        },
        {
          "indexed": true,
          "internalType": "uint256",
          "name": "tokenID",
          "type": "uint256"
        }
      ],
      "name": "RandomReqestedSVG",
      "type": "event"
    },
    {
      "anonymous": false,
      "inputs": [
        {
          "indexed": true,
          "internalType": "address",
          "name": "from",
          "type": "address"
        },
        {
          "indexed": true,
          "internalType": "address",
          "name": "to",
          "type": "address"
        },
        {
          "indexed": true,
          "internalType": "uint256",
          "name": "tokenId",
          "type": "uint256"
        }
      ],
      "name": "Transfer",
      "type": "event"
    },
    {
      "inputs": [
        {
          "internalType": "uint256",
          "name": "_tokenID",
          "type": "uint256"
        }
      ],
      "name": "MintToken",
      "outputs": [],
      "stateMutability": "nonpayable",
      "type": "function"
    },
    {
      "inputs": [
        {
          "internalType": "address",
          "name": "to",
          "type": "address"
        },
        {
          "internalType": "uint256",
          "name": "tokenId",
          "type": "uint256"
        }
      ],
      "name": "approve",
      "outputs": [],
      "stateMutability": "nonpayable",
      "type": "function"
    },
    {
      "inputs": [
        {
          "internalType": "address",
          "name": "owner",
          "type": "address"
        }
      ],
      "name": "balanceOf",
      "outputs": [
        {
          "internalType": "uint256",
          "name": "",
          "type": "uint256"
        }
      ],
      "stateMutability": "view",
      "type": "function"
    },
    {
      "inputs": [
        {
          "internalType": "uint256",
          "name": "",
          "type": "uint256"
        }
      ],
      "name": "colours",
      "outputs": [
        {
          "internalType": "string",
          "name": "",
          "type": "string"
        }
      ],
      "stateMutability": "view",
      "type": "function"
    },
    {
      "inputs": [],
      "name": "createRequest",
      "outputs": [
        {
          "internalType": "bytes32",
          "name": "requestId",
          "type": "bytes32"
        }
      ],
      "stateMutability": "payable",
      "type": "function"
    },
    {
      "inputs": [],
      "name": "fee",
      "outputs": [
        {
          "internalType": "uint256",
          "name": "",
          "type": "uint256"
        }
      ],
      "stateMutability": "view",
      "type": "function"
    },
    {
      "inputs": [
        {
          "internalType": "string",
          "name": "_imageURI",
          "type": "string"
        }
      ],
      "name": "formatTokenURI",
      "outputs": [
        {
          "internalType": "string",
          "name": "",
          "type": "string"
        }
      ],
      "stateMutability": "pure",
      "type": "function"
    },
    {
      "inputs": [
        {
          "internalType": "uint256",
          "name": "tokenId",
          "type": "uint256"
        }
      ],
      "name": "getApproved",
      "outputs": [
        {
          "internalType": "address",
          "name": "",
          "type": "address"
        }
      ],
      "stateMutability": "view",
      "type": "function"
    },
    {
      "inputs": [],
      "name": "getRandomNumber",
      "outputs": [
        {
          "internalType": "bytes32",
          "name": "_requestId",
          "type": "bytes32"
        }
      ],
      "stateMutability": "nonpayable",
      "type": "function"
    },
    {
      "inputs": [
        {
          "internalType": "address",
          "name": "owner",
          "type": "address"
        },
        {
          "internalType": "address",
          "name": "operator",
          "type": "address"
        }
      ],
      "name": "isApprovedForAll",
      "outputs": [
        {
          "internalType": "bool",
          "name": "",
          "type": "bool"
        }
      ],
      "stateMutability": "view",
      "type": "function"
    },
    {
      "inputs": [],
      "name": "keyHash",
      "outputs": [
        {
          "internalType": "bytes32",
          "name": "",
          "type": "bytes32"
        }
      ],
      "stateMutability": "view",
      "type": "function"
    },
    {
      "inputs": [],
      "name": "name",
      "outputs": [
        {
          "internalType": "string",
          "name": "",
          "type": "string"
        }
      ],
      "stateMutability": "view",
      "type": "function"
    },
    {
      "inputs": [],
      "name": "owner",
      "outputs": [
        {
          "internalType": "address payable",
          "name": "",
          "type": "address"
        }
      ],
      "stateMutability": "view",
      "type": "function"
    },
    {
      "inputs": [
        {
          "internalType": "uint256",
          "name": "tokenId",
          "type": "uint256"
        }
      ],
      "name": "ownerOf",
      "outputs": [
        {
          "internalType": "address",
          "name": "",
          "type": "address"
        }
      ],
      "stateMutability": "view",
      "type": "function"
    },
    {
      "inputs": [
        {
          "internalType": "uint256",
          "name": "",
          "type": "uint256"
        }
      ],
      "name": "pathCommand",
      "outputs": [
        {
          "internalType": "string",
          "name": "",
          "type": "string"
        }
      ],
      "stateMutability": "view",
      "type": "function"
    },
    {
      "inputs": [],
      "name": "pathMaxCommand",
      "outputs": [
        {
          "internalType": "uint256",
          "name": "",
          "type": "uint256"
        }
      ],
      "stateMutability": "view",
      "type": "function"
    },
    {
      "inputs": [],
      "name": "pathsMax",
      "outputs": [
        {
          "internalType": "uint256",
          "name": "",
          "type": "uint256"
        }
      ],
      "stateMutability": "view",
      "type": "function"
    },
    {
      "inputs": [
        {
          "internalType": "bytes32",
          "name": "requestId",
          "type": "bytes32"
        },
        {
          "internalType": "uint256",
          "name": "randomness",
          "type": "uint256"
        }
      ],
      "name": "rawFulfillRandomness",
      "outputs": [],
      "stateMutability": "nonpayable",
      "type": "function"
    },
    {
      "inputs": [
        {
          "internalType": "address",
          "name": "from",
          "type": "address"
        },
        {
          "internalType": "address",
          "name": "to",
          "type": "address"
        },
        {
          "internalType": "uint256",
          "name": "tokenId",
          "type": "uint256"
        }
      ],
      "name": "safeTransferFrom",
      "outputs": [],
      "stateMutability": "nonpayable",
      "type": "function"
    },
    {
      "inputs": [
        {
          "internalType": "address",
          "name": "from",
          "type": "address"
        },
        {
          "internalType": "address",
          "name": "to",
          "type": "address"
        },
        {
          "internalType": "uint256",
          "name": "tokenId",
          "type": "uint256"
        },
        {
          "internalType": "bytes",
          "name": "_data",
          "type": "bytes"
        }
      ],
      "name": "safeTransferFrom",
      "outputs": [],
      "stateMutability": "nonpayable",
      "type": "function"
    },
    {
      "inputs": [
        {
          "internalType": "address",
          "name": "operator",
          "type": "address"
        },
        {
          "internalType": "bool",
          "name": "approved",
          "type": "bool"
        }
      ],
      "name": "setApprovalForAll",
      "outputs": [],
      "stateMutability": "nonpayable",
      "type": "function"
    },
    {
      "inputs": [],
      "name": "size",
      "outputs": [
        {
          "internalType": "uint256",
          "name": "",
          "type": "uint256"
        }
      ],
      "stateMutability": "view",
      "type": "function"
    },
    {
      "inputs": [
        {
          "internalType": "bytes4",
          "name": "interfaceId",
          "type": "bytes4"
        }
      ],
      "name": "supportsInterface",
      "outputs": [
        {
          "internalType": "bool",
          "name": "",
          "type": "bool"
        }
      ],
      "stateMutability": "view",
      "type": "function"
    },
    {
      "inputs": [],
      "name": "symbol",
      "outputs": [
        {
          "internalType": "string",
          "name": "",
          "type": "string"
        }
      ],
      "stateMutability": "view",
      "type": "function"
    },
    {
      "inputs": [
        {
          "internalType": "uint256",
          "name": "",
          "type": "uint256"
        }
      ],
      "name": "tokenIdToRandomNumber",
      "outputs": [
        {
          "internalType": "uint256",
          "name": "",
          "type": "uint256"
        }
      ],
      "stateMutability": "view",
      "type": "function"
    },
    {
      "inputs": [
        {
          "internalType": "uint256",
          "name": "tokenId",
          "type": "uint256"
        }
      ],
      "name": "tokenURI",
      "outputs": [
        {
          "internalType": "string",
          "name": "",
          "type": "string"
        }
      ],
      "stateMutability": "view",
      "type": "function"
    },
    {
      "inputs": [
        {
          "internalType": "address",
          "name": "from",
          "type": "address"
        },
        {
          "internalType": "address",
          "name": "to",
          "type": "address"
        },
        {
          "internalType": "uint256",
          "name": "tokenId",
          "type": "uint256"
        }
      ],
      "name": "transferFrom",
      "outputs": [],
      "stateMutability": "nonpayable",
      "type": "function"
    }
  ],
  "bytecode": {
    "object": "0x60c060405260006008553480156200001657600080fd5b5060405162003ae038038062003ae0833981016040819052620000399162000448565b604080518082018252600d81526c1bdb90da185a5b94d591d39195609a1b60208083019182528351808501909452600684526513d0d4d3919560d21b90840152815187938793929091620000909160009162000270565b508051620000a690600190602084019062000270565b5050506001600160a01b0391821660a052166080908152600980546001600160a01b03191633179055600a839055600b8290556012600c556006600d55610258600e556040805191820181526001828201818152604d60f81b6060850152835281518083019092528152601360fa1b6020828101919091528201526200013190600f906002620002ff565b50604051806101000160405280604051806040016040528060038152602001621c995960ea1b815250815260200160405180604001604052806004815260200163626c756560e01b815250815260200160405180604001604052806005815260200164626c61636b60d81b81525081526020016040518060400160405280600681526020016579656c6c6f7760d01b81525081526020016040518060400160405280600481526020016370696e6b60e01b81525081526020016040518060400160405280600581526020016433b932b2b760d91b815250815260200160405180604001604052806006815260200165707572706c6560d01b8152508152602001604051806040016040528060068152602001656f72616e676560d01b8152508152506010906008620002659291906200035f565b5050505050620004cc565b8280546200027e9062000490565b90600052602060002090601f016020900481019282620002a25760008555620002ed565b82601f10620002bd57805160ff1916838001178555620002ed565b82800160010185558215620002ed579182015b82811115620002ed578251825591602001919060010190620002d0565b50620002fb929150620003b1565b5090565b82805482825590600052602060002090810192821562000351579160200282015b828111156200035157825180516200034091849160209091019062000270565b509160200191906001019062000320565b50620002fb929150620003c8565b82805482825590600052602060002090810192821562000351579160200282015b82811115620003515782518051620003a091849160209091019062000270565b509160200191906001019062000380565b5b80821115620002fb5760008155600101620003b2565b80821115620002fb576000620003df8282620003e9565b50600101620003c8565b508054620003f79062000490565b6000825580601f1062000408575050565b601f016020900490600052602060002090810190620004289190620003b1565b50565b80516001600160a01b03811681146200044357600080fd5b919050565b600080600080608085870312156200045f57600080fd5b6200046a856200042b565b93506200047a602086016200042b565b6040860151606090960151949790965092505050565b600181811c90821680620004a557607f821691505b602082108103620004c657634e487b7160e01b600052602260045260246000fd5b50919050565b60805160a0516135e06200050060003960008181610d160152611ea90152600081816111c40152611e6d01526135e06000f3fe6080604052600436106101ac5760003560e01c80638da5cb5b116100ec578063b88d4fde1161008a578063c957907811610064578063c9579078146104c4578063dbdff2c1146104cc578063ddca3f43146104e1578063e985e9c5146104f757600080fd5b8063b88d4fde14610464578063c76ab94014610484578063c87b56dd146104a457600080fd5b806395d89b41116100c657806395d89b41146103e25780639c1cd795146103f7578063a22cb46514610424578063a73628c11461044457600080fd5b80638da5cb5b1461037f57806394985ddd146103ac578063949d225d146103cc57600080fd5b806323b872dd116101595780636352211e116101335780636352211e1461030957806370a082311461032957806371aee19314610349578063764aeaad1461036957600080fd5b806323b872dd146102b357806342842e0e146102d357806361728f39146102f357600080fd5b8063081812fc1161018a578063081812fc1461022a578063095ea7b31461026f57806314193cf81461028f57600080fd5b806301ffc9a7146101b157806305297781146101e657806306fdde0314610208575b600080fd5b3480156101bd57600080fd5b506101d16101cc366004612b7d565b61054d565b60405190151581526020015b60405180910390f35b3480156101f257600080fd5b50610206610201366004612b9a565b610632565b005b34801561021457600080fd5b5061021d610775565b6040516101dd9190612c29565b34801561023657600080fd5b5061024a610245366004612b9a565b610807565b60405173ffffffffffffffffffffffffffffffffffffffff90911681526020016101dd565b34801561027b57600080fd5b5061020661028a366004612c65565b6108e6565b34801561029b57600080fd5b506102a5600d5481565b6040519081526020016101dd565b3480156102bf57600080fd5b506102066102ce366004612c8f565b610a72565b3480156102df57600080fd5b506102066102ee366004612c8f565b610b13565b3480156102ff57600080fd5b506102a5600a5481565b34801561031557600080fd5b5061024a610324366004612b9a565b610b2e565b34801561033557600080fd5b506102a5610344366004612ccb565b610be0565b34801561035557600080fd5b5061021d610364366004612da9565b610cae565b34801561037557600080fd5b506102a5600c5481565b34801561038b57600080fd5b5060095461024a9073ffffffffffffffffffffffffffffffffffffffff1681565b3480156103b857600080fd5b506102066103c7366004612df2565b610cfe565b3480156103d857600080fd5b506102a5600e5481565b3480156103ee57600080fd5b5061021d610dab565b34801561040357600080fd5b506102a5610412366004612b9a565b60136020526000908152604090205481565b34801561043057600080fd5b5061020661043f366004612e22565b610dba565b34801561045057600080fd5b5061021d61045f366004612b9a565b610dc5565b34801561047057600080fd5b5061020661047f366004612e59565b610e71565b34801561049057600080fd5b5061021d61049f366004612b9a565b610f19565b3480156104b057600080fd5b5061021d6104bf366004612b9a565b610f29565b6102a56110e2565b3480156104d857600080fd5b506102a561117a565b3480156104ed57600080fd5b506102a5600b5481565b34801561050357600080fd5b506101d1610512366004612ed5565b73ffffffffffffffffffffffffffffffffffffffff918216600090815260056020908152604080832093909416825291909152205460ff1690565b60007fffffffff0000000000000000000000000000000000000000000000000000000082167f80ac58cd0000000000000000000000000000000000000000000000000000000014806105e057507fffffffff0000000000000000000000000000000000000000000000000000000082167f5b5e139f00000000000000000000000000000000000000000000000000000000145b8061062c57507f01ffc9a7000000000000000000000000000000000000000000000000000000007fffffffff000000000000000000000000000000000000000000000000000000008316145b92915050565b61063b81610f29565b51600003610675576040517f34349edf00000000000000000000000000000000000000000000000000000000815260040160405180910390fd5b8060085411156106b1576040517f3398eb4400000000000000000000000000000000000000000000000000000000815260040160405180910390fd5b600081815260136020526040902054156106f7576040517ff51414ee00000000000000000000000000000000000000000000000000000000815260040160405180910390fd5b6000818152601360205260408120549061071082611279565b9050600061071d8261136f565b9050600061072a82610cae565b9050610736858261140f565b847fcb25abd690c2dce293e6237b33535facf92481a7036a95e95ff3977eeaa66688826040516107669190612c29565b60405180910390a25050505050565b60606000805461078490612f08565b80601f01602080910402602001604051908101604052809291908181526020018280546107b090612f08565b80156107fd5780601f106107d2576101008083540402835291602001916107fd565b820191906000526020600020905b8154815290600101906020018083116107e057829003601f168201915b5050505050905090565b60008181526002602052604081205473ffffffffffffffffffffffffffffffffffffffff166108bd576040517f08c379a000000000000000000000000000000000000000000000000000000000815260206004820152602c60248201527f4552433732313a20617070726f76656420717565727920666f72206e6f6e657860448201527f697374656e7420746f6b656e000000000000000000000000000000000000000060648201526084015b60405180910390fd5b5060009081526004602052604090205473ffffffffffffffffffffffffffffffffffffffff1690565b60006108f182610b2e565b90508073ffffffffffffffffffffffffffffffffffffffff168373ffffffffffffffffffffffffffffffffffffffff16036109ae576040517f08c379a000000000000000000000000000000000000000000000000000000000815260206004820152602160248201527f4552433732313a20617070726f76616c20746f2063757272656e74206f776e6560448201527f720000000000000000000000000000000000000000000000000000000000000060648201526084016108b4565b3373ffffffffffffffffffffffffffffffffffffffff821614806109d757506109d78133610512565b610a63576040517f08c379a000000000000000000000000000000000000000000000000000000000815260206004820152603860248201527f4552433732313a20617070726f76652063616c6c6572206973206e6f74206f7760448201527f6e6572206e6f7220617070726f76656420666f7220616c6c000000000000000060648201526084016108b4565b610a6d83836114df565b505050565b610a7c338261157f565b610b08576040517f08c379a000000000000000000000000000000000000000000000000000000000815260206004820152603160248201527f4552433732313a207472616e736665722063616c6c6572206973206e6f74206f60448201527f776e6572206e6f7220617070726f76656400000000000000000000000000000060648201526084016108b4565b610a6d8383836116ee565b610a6d83838360405180602001604052806000815250610e71565b60008181526002602052604081205473ffffffffffffffffffffffffffffffffffffffff168061062c576040517f08c379a000000000000000000000000000000000000000000000000000000000815260206004820152602960248201527f4552433732313a206f776e657220717565727920666f72206e6f6e657869737460448201527f656e7420746f6b656e000000000000000000000000000000000000000000000060648201526084016108b4565b600073ffffffffffffffffffffffffffffffffffffffff8216610c85576040517f08c379a000000000000000000000000000000000000000000000000000000000815260206004820152602960248201527f4552433732313a2061646472657373207a65726f206973206e6f74206120766160448201527f6c6964206f776e6572000000000000000000000000000000000000000000000060648201526084016108b4565b5073ffffffffffffffffffffffffffffffffffffffff1660009081526003602052604090205490565b6060610cd882604051602001610cc49190612f5b565b604051602081830303815290604052611955565b604051602001610ce89190613039565b6040516020818303038152906040529050919050565b3373ffffffffffffffffffffffffffffffffffffffff7f00000000000000000000000000000000000000000000000000000000000000001614610d9d576040517f08c379a000000000000000000000000000000000000000000000000000000000815260206004820152601f60248201527f4f6e6c7920565246436f6f7264696e61746f722063616e2066756c66696c6c0060448201526064016108b4565b610da78282611b32565b5050565b60606001805461078490612f08565b610da7338383611b8c565b600f8181548110610dd557600080fd5b906000526020600020016000915090508054610df090612f08565b80601f0160208091040260200160405190810160405280929190818152602001828054610e1c90612f08565b8015610e695780601f10610e3e57610100808354040283529160200191610e69565b820191906000526020600020905b815481529060010190602001808311610e4c57829003601f168201915b505050505081565b610e7b338361157f565b610f07576040517f08c379a000000000000000000000000000000000000000000000000000000000815260206004820152603160248201527f4552433732313a207472616e736665722063616c6c6572206973206e6f74206f60448201527f776e6572206e6f7220617070726f76656400000000000000000000000000000060648201526084016108b4565b610f1384848484611cb9565b50505050565b60108181548110610dd557600080fd5b60008181526002602052604090205460609073ffffffffffffffffffffffffffffffffffffffff16610fdd576040517f08c379a000000000000000000000000000000000000000000000000000000000815260206004820152603160248201527f45524337323155524953746f726167653a2055524920717565727920666f722060448201527f6e6f6e6578697374656e7420746f6b656e00000000000000000000000000000060648201526084016108b4565b60008281526006602052604081208054610ff690612f08565b80601f016020809104026020016040519081016040528092919081815260200182805461102290612f08565b801561106f5780601f106110445761010080835404028352916020019161106f565b820191906000526020600020905b81548152906001019060200180831161105257829003601f168201915b50505050509050600061108d60408051602081019091526000815290565b9050805160000361109f575092915050565b8151156110d15780826040516020016110b992919061307e565b60405160208183030381529060405292505050919050565b6110da84611d5c565b949350505050565b60006110f2600a54600b54611e69565b600081815260116020908152604080832080547fffffffffffffffffffffffff0000000000000000000000000000000000000000163317905560085460129092529091208190559091506111479060016130dc565b600881905560405182907f7bcbaf51be435bd11c4787522feb8be06c437c7aba5cb2fb27fa87b705b2632b90600090a390565b600b546040517f70a082310000000000000000000000000000000000000000000000000000000081523060048201526000919073ffffffffffffffffffffffffffffffffffffffff7f000000000000000000000000000000000000000000000000000000000000000016906370a0823190602401602060405180830381865afa15801561120b573d6000803e3d6000fd5b505050506040513d601f19601f8201168201806040525081019061122f91906130f4565b10611266576040517f80fdb38d00000000000000000000000000000000000000000000000000000000815260040160405180910390fd5b611274600a54600b54611e69565b905090565b60606000600c548361128b919061313c565b6112969060026130dc565b90506112a3600e54611ff2565b6112ae600e54611ff2565b6040516020016112bf929190613150565b604051602081830303815290604052915060005b818110156113465760408051602080820187905281830184905282518083038401815260609092019092528051910120600061130e82612152565b9050848160405160200161132392919061307e565b604051602081830303815290604052945050506113408160010190565b506112d3565b50816040516020016113589190613221565b604051602081830303815290604052915050919050565b606060006040518060400160405280601a81526020017f646174613a696d6167652f7376672b786d6c3b6261736536342c000000000000815250905060006113c184604051602001610cc49190613262565b9050600082826040516020016113d892919061307e565b604080517fffffffffffffffffffffffffffffffffffffffffffffffffffffffffffffffe081840301815291905295945050505050565b60008281526002602052604090205473ffffffffffffffffffffffffffffffffffffffff166114c0576040517f08c379a000000000000000000000000000000000000000000000000000000000815260206004820152602e60248201527f45524337323155524953746f726167653a2055524920736574206f66206e6f6e60448201527f6578697374656e7420746f6b656e00000000000000000000000000000000000060648201526084016108b4565b60008281526006602090815260409091208251610a6d92840190612ab3565b600081815260046020526040902080547fffffffffffffffffffffffff00000000000000000000000000000000000000001673ffffffffffffffffffffffffffffffffffffffff8416908117909155819061153982610b2e565b73ffffffffffffffffffffffffffffffffffffffff167f8c5be1e5ebec7d5bd14f71427d1e84f3dd0314c0f7b2291e5b200ac8c7c3b92560405160405180910390a45050565b60008181526002602052604081205473ffffffffffffffffffffffffffffffffffffffff16611630576040517f08c379a000000000000000000000000000000000000000000000000000000000815260206004820152602c60248201527f4552433732313a206f70657261746f7220717565727920666f72206e6f6e657860448201527f697374656e7420746f6b656e000000000000000000000000000000000000000060648201526084016108b4565b600061163b83610b2e565b90508073ffffffffffffffffffffffffffffffffffffffff168473ffffffffffffffffffffffffffffffffffffffff1614806116a9575073ffffffffffffffffffffffffffffffffffffffff80821660009081526005602090815260408083209388168352929052205460ff165b806110da57508373ffffffffffffffffffffffffffffffffffffffff166116cf84610807565b73ffffffffffffffffffffffffffffffffffffffff1614949350505050565b8273ffffffffffffffffffffffffffffffffffffffff1661170e82610b2e565b73ffffffffffffffffffffffffffffffffffffffff16146117b1576040517f08c379a000000000000000000000000000000000000000000000000000000000815260206004820152602560248201527f4552433732313a207472616e736665722066726f6d20696e636f72726563742060448201527f6f776e657200000000000000000000000000000000000000000000000000000060648201526084016108b4565b73ffffffffffffffffffffffffffffffffffffffff8216611853576040517f08c379a0000000000000000000000000000000000000000000000000000000008152602060048201526024808201527f4552433732313a207472616e7366657220746f20746865207a65726f2061646460448201527f726573730000000000000000000000000000000000000000000000000000000060648201526084016108b4565b61185e6000826114df565b73ffffffffffffffffffffffffffffffffffffffff8316600090815260036020526040812080546001929061189490849061327e565b909155505073ffffffffffffffffffffffffffffffffffffffff821660009081526003602052604081208054600192906118cf9084906130dc565b909155505060008181526002602052604080822080547fffffffffffffffffffffffff00000000000000000000000000000000000000001673ffffffffffffffffffffffffffffffffffffffff86811691821790925591518493918716917fddf252ad1be2c89b69c2b068fc378daa952ba7f163c4a11628f55a4df523b3ef91a4505050565b80516060906000819003611979575050604080516020810190915260008152919050565b600060036119888360026130dc565b6119929190613295565b61199d9060046132a9565b905060006119ac8260206130dc565b67ffffffffffffffff8111156119c4576119c4612ce6565b6040519080825280601f01601f1916602001820160405280156119ee576020820181803683370190505b509050600060405180606001604052806040815260200161356b604091399050600181016020830160005b86811015611a7a576003818a01810151603f601282901c8116860151600c83901c8216870151600684901c831688015192909316870151600891821b60ff94851601821b92841692909201901b91160160e01b835260049092019101611a19565b506003860660018114611a945760028114611ade57611b24565b7f3d3d0000000000000000000000000000000000000000000000000000000000007ffffffffffffffffffffffffffffffffffffffffffffffffffffffffffffffffe830152611b24565b7f3d000000000000000000000000000000000000000000000000000000000000007fffffffffffffffffffffffffffffffffffffffffffffffffffffffffffffffff8301525b505050918152949350505050565b600082815260116020908152604080832054601290925290912054600881905573ffffffffffffffffffffffffffffffffffffffff90911690611b76908290612438565b5060085460009081526013602052604090205550565b8173ffffffffffffffffffffffffffffffffffffffff168373ffffffffffffffffffffffffffffffffffffffff1603611c21576040517f08c379a000000000000000000000000000000000000000000000000000000000815260206004820152601960248201527f4552433732313a20617070726f766520746f2063616c6c65720000000000000060448201526064016108b4565b73ffffffffffffffffffffffffffffffffffffffff83811660008181526005602090815260408083209487168084529482529182902080547fffffffffffffffffffffffffffffffffffffffffffffffffffffffffffffff001686151590811790915591519182527f17307eab39ab6107e8899845ad3d59bd9653f200f220920489ca2b5937696c31910160405180910390a3505050565b611cc48484846116ee565b611cd084848484612452565b610f13576040517f08c379a000000000000000000000000000000000000000000000000000000000815260206004820152603260248201527f4552433732313a207472616e7366657220746f206e6f6e20455243373231526560448201527f63656976657220696d706c656d656e746572000000000000000000000000000060648201526084016108b4565b60008181526002602052604090205460609073ffffffffffffffffffffffffffffffffffffffff16611e10576040517f08c379a000000000000000000000000000000000000000000000000000000000815260206004820152602f60248201527f4552433732314d657461646174613a2055524920717565727920666f72206e6f60448201527f6e6578697374656e7420746f6b656e000000000000000000000000000000000060648201526084016108b4565b6000611e2760408051602081019091526000815290565b90506000815111611e475760405180602001604052806000815250611e62565b80611e5184612645565b60405160200161135892919061307e565b9392505050565b60007f000000000000000000000000000000000000000000000000000000000000000073ffffffffffffffffffffffffffffffffffffffff16634000aea07f000000000000000000000000000000000000000000000000000000000000000084866000604051602001611ee6929190918252602082015260400190565b6040516020818303038152906040526040518463ffffffff1660e01b8152600401611f13939291906132e6565b6020604051808303816000875af1158015611f32573d6000803e3d6000fd5b505050506040513d601f19601f82011682018060405250810190611f569190613324565b50600083815260076020818152604080842054815180840189905280830186905230606082015260808082018390528351808303909101815260a090910190925281519183019190912093879052919052611fb29060016130dc565b6000858152600760205260409020556110da8482604080516020808201949094528082019290925280518083038201815260609092019052805191012090565b60608160000361203557505060408051808201909152600181527f3000000000000000000000000000000000000000000000000000000000000000602082015290565b8160005b811561205f578061204981613341565b91506120589050600a83613295565b9150612039565b60008167ffffffffffffffff81111561207a5761207a612ce6565b6040519080825280601f01601f1916602001820160405280156120a4576020820181803683370190505b509050815b8515612149576120ba60018261327e565b905060006120c9600a88613295565b6120d490600a6132a9565b6120de908861327e565b6120e9906030613379565b905060008160f81b9050808484815181106121065761210661339e565b60200101907effffffffffffffffffffffffffffffffffffffffffffffffffffffffffffff1916908160001a905350612140600a89613295565b975050506120a9565b50949350505050565b60606000600d5483612164919061313c565b61216f9060026130dc565b90506040518060400160405280600a81526020017f3c706174682064203d27000000000000000000000000000000000000000000008152509150600083600e546040516020016121c9929190918252602082015260400190565b6040516020818303038152906040528051906020012060001c9050600061229682600f6000815481106121fe576121fe61339e565b90600052602060002001805461221390612f08565b80601f016020809104026020016040519081016040528092919081815260200182805461223f90612f08565b801561228c5780601f106122615761010080835404028352916020019161228c565b820191906000526020600020905b81548152906001019060200180831161226f57829003601f168201915b505050505061277a565b905083816040516020016122ab92919061307e565b604051602081830303815290604052935060005b83811015612351578581600e546122d691906130dc565b6040805160208101939093528201526060016040516020818303038152906040528051906020012060001c925061231b83600f6001815481106121fe576121fe61339e565b9150848260405160200161233092919061307e565b604051602081830303815290604052945061234b8160010190565b506122bf565b506010805460009190612364908861313c565b815481106123745761237461339e565b90600052602060002001805461238990612f08565b80601f01602080910402602001604051908101604052809291908181526020018280546123b590612f08565b80156124025780601f106123d757610100808354040283529160200191612402565b820191906000526020600020905b8154815290600101906020018083116123e557829003601f168201915b5050505050905084818260405160200161241e939291906133cd565b604051602081830303815290604052945050505050919050565b610da782826040518060200160405280600081525061284e565b600073ffffffffffffffffffffffffffffffffffffffff84163b1561263a576040517f150b7a0200000000000000000000000000000000000000000000000000000000815273ffffffffffffffffffffffffffffffffffffffff85169063150b7a02906124c990339089908890889060040161348e565b6020604051808303816000875af1925050508015612522575060408051601f3d9081017fffffffffffffffffffffffffffffffffffffffffffffffffffffffffffffffe016820190925261251f918101906134d7565b60015b6125ef573d808015612550576040519150601f19603f3d011682016040523d82523d6000602084013e612555565b606091505b5080516000036125e7576040517f08c379a000000000000000000000000000000000000000000000000000000000815260206004820152603260248201527f4552433732313a207472616e7366657220746f206e6f6e20455243373231526560448201527f63656976657220696d706c656d656e746572000000000000000000000000000060648201526084016108b4565b805181602001fd5b7fffffffff00000000000000000000000000000000000000000000000000000000167f150b7a02000000000000000000000000000000000000000000000000000000001490506110da565b506001949350505050565b60608160000361268857505060408051808201909152600181527f3000000000000000000000000000000000000000000000000000000000000000602082015290565b8160005b81156126b2578061269c81613341565b91506126ab9050600a83613295565b915061268c565b60008167ffffffffffffffff8111156126cd576126cd612ce6565b6040519080825280601f01601f1916602001820160405280156126f7576020820181803683370190505b5090505b84156110da5761270c60018361327e565b9150612719600a8661313c565b6127249060306130dc565b60f81b8183815181106127395761273961339e565b60200101907effffffffffffffffffffffffffffffffffffffffffffffffffffffffffffff1916908160001a905350612773600a86613295565b94506126fb565b600e546060906000908461278f8260026132a9565b6040805160208101939093528201526060016040516020818303038152906040528051906020012060001c6127c4919061313c565b600e54909150600090856127d98260036132a9565b6040805160208101939093528201526060016040516020818303038152906040528051906020012060001c61280e919061313c565b90508361281a83611ff2565b61282383611ff2565b604051602001612835939291906134f4565b6040516020818303038152906040529250505092915050565b61285883836128f1565b6128656000848484612452565b610a6d576040517f08c379a000000000000000000000000000000000000000000000000000000000815260206004820152603260248201527f4552433732313a207472616e7366657220746f206e6f6e20455243373231526560448201527f63656976657220696d706c656d656e746572000000000000000000000000000060648201526084016108b4565b73ffffffffffffffffffffffffffffffffffffffff821661296e576040517f08c379a000000000000000000000000000000000000000000000000000000000815260206004820181905260248201527f4552433732313a206d696e7420746f20746865207a65726f206164647265737360448201526064016108b4565b60008181526002602052604090205473ffffffffffffffffffffffffffffffffffffffff16156129fa576040517f08c379a000000000000000000000000000000000000000000000000000000000815260206004820152601c60248201527f4552433732313a20746f6b656e20616c7265616479206d696e7465640000000060448201526064016108b4565b73ffffffffffffffffffffffffffffffffffffffff82166000908152600360205260408120805460019290612a309084906130dc565b909155505060008181526002602052604080822080547fffffffffffffffffffffffff00000000000000000000000000000000000000001673ffffffffffffffffffffffffffffffffffffffff861690811790915590518392907fddf252ad1be2c89b69c2b068fc378daa952ba7f163c4a11628f55a4df523b3ef908290a45050565b828054612abf90612f08565b90600052602060002090601f016020900481019282612ae15760008555612b27565b82601f10612afa57805160ff1916838001178555612b27565b82800160010185558215612b27579182015b82811115612b27578251825591602001919060010190612b0c565b50612b33929150612b37565b5090565b5b80821115612b335760008155600101612b38565b7fffffffff0000000000000000000000000000000000000000000000000000000081168114612b7a57600080fd5b50565b600060208284031215612b8f57600080fd5b8135611e6281612b4c565b600060208284031215612bac57600080fd5b5035919050565b60005b83811015612bce578181015183820152602001612bb6565b83811115610f135750506000910152565b60008151808452612bf7816020860160208601612bb3565b601f017fffffffffffffffffffffffffffffffffffffffffffffffffffffffffffffffe0169290920160200192915050565b602081526000611e626020830184612bdf565b803573ffffffffffffffffffffffffffffffffffffffff81168114612c6057600080fd5b919050565b60008060408385031215612c7857600080fd5b612c8183612c3c565b946020939093013593505050565b600080600060608486031215612ca457600080fd5b612cad84612c3c565b9250612cbb60208501612c3c565b9150604084013590509250925092565b600060208284031215612cdd57600080fd5b611e6282612c3c565b7f4e487b7100000000000000000000000000000000000000000000000000000000600052604160045260246000fd5b600067ffffffffffffffff80841115612d3057612d30612ce6565b604051601f85017fffffffffffffffffffffffffffffffffffffffffffffffffffffffffffffffe0908116603f01168101908282118183101715612d7657612d76612ce6565b81604052809350858152868686011115612d8f57600080fd5b858560208301376000602087830101525050509392505050565b600060208284031215612dbb57600080fd5b813567ffffffffffffffff811115612dd257600080fd5b8201601f81018413612de357600080fd5b6110da84823560208401612d15565b60008060408385031215612e0557600080fd5b50508035926020909101359150565b8015158114612b7a57600080fd5b60008060408385031215612e3557600080fd5b612e3e83612c3c565b91506020830135612e4e81612e14565b809150509250929050565b60008060008060808587031215612e6f57600080fd5b612e7885612c3c565b9350612e8660208601612c3c565b925060408501359150606085013567ffffffffffffffff811115612ea957600080fd5b8501601f81018713612eba57600080fd5b612ec987823560208401612d15565b91505092959194509250565b60008060408385031215612ee857600080fd5b612ef183612c3c565b9150612eff60208401612c3c565b90509250929050565b600181811c90821680612f1c57607f821691505b602082108103612f55577f4e487b7100000000000000000000000000000000000000000000000000000000600052602260045260246000fd5b50919050565b7f7b226e616d65223a22000000000000000000000000000000000000000000000081527f4f6e20436861696e20535647000000000000000000000000000000000000000060098201527f222c20226465736372697074696f6e223a224f6e20636861696e20535647204e60158201527f4654222c202261747472696275746573223a22222c2022696d616765223a2200603582015260008251613005816054850160208701612bb3565b7f227d0000000000000000000000000000000000000000000000000000000000006054939091019283015250605601919050565b7f646174613a6170706c69636174696f6e2f6a736f6e3b6261736536342c00000081526000825161307181601d850160208701612bb3565b91909101601d0192915050565b60008351613090818460208801612bb3565b8351908301906130a4818360208801612bb3565b01949350505050565b7f4e487b7100000000000000000000000000000000000000000000000000000000600052601160045260246000fd5b600082198211156130ef576130ef6130ad565b500190565b60006020828403121561310657600080fd5b5051919050565b7f4e487b7100000000000000000000000000000000000000000000000000000000600052601260045260246000fd5b60008261314b5761314b61310d565b500690565b7f3c73766720786d6c6e733d27687474703a2f2f7777772e77332e6f72672f323081527f30302f73766727206865696768743d27000000000000000000000000000000006020820152600083516131ae816030850160208801612bb3565b7f2777696474683d2700000000000000000000000000000000000000000000000060309184019182015283516131eb816038840160208801612bb3565b7f273e00000000000000000000000000000000000000000000000000000000000060389290910191820152603a01949350505050565b60008251613233818460208701612bb3565b7f3c2f7376673e0000000000000000000000000000000000000000000000000000920191825250600601919050565b60008251613274818460208701612bb3565b9190910192915050565b600082821015613290576132906130ad565b500390565b6000826132a4576132a461310d565b500490565b6000817fffffffffffffffffffffffffffffffffffffffffffffffffffffffffffffffff04831182151516156132e1576132e16130ad565b500290565b73ffffffffffffffffffffffffffffffffffffffff8416815282602082015260606040820152600061331b6060830184612bdf565b95945050505050565b60006020828403121561333657600080fd5b8151611e6281612e14565b60007fffffffffffffffffffffffffffffffffffffffffffffffffffffffffffffffff8203613372576133726130ad565b5060010190565b600060ff821660ff84168060ff03821115613396576133966130ad565b019392505050565b7f4e487b7100000000000000000000000000000000000000000000000000000000600052603260045260246000fd5b600084516133df818460208901612bb3565b7f272066696c6c3d270000000000000000000000000000000000000000000000009083019081528451613419816008840160208901612bb3565b7f27207374726f6b653d2700000000000000000000000000000000000000000000600892909101918201528351613457816012840160208801612bb3565b7f272f3e00000000000000000000000000000000000000000000000000000000006012929091019182015260150195945050505050565b600073ffffffffffffffffffffffffffffffffffffffff8087168352808616602084015250836040830152608060608301526134cd6080830184612bdf565b9695505050505050565b6000602082840312156134e957600080fd5b8151611e6281612b4c565b60008451613506818460208901612bb3565b84519083019061351a818360208901612bb3565b7f200000000000000000000000000000000000000000000000000000000000000091018181528451909190613556816001850160208901612bb3565b60019201918201526002019594505050505056fe4142434445464748494a4b4c4d4e4f505152535455565758595a6162636465666768696a6b6c6d6e6f707172737475767778797a303132333435363738392b2fa2646970667358221220e397d889ef1cbe67c4c898d8c85012474e6ca78e8e11eaeda8c42820544aafe564736f6c634300080d0033",
    "linkReferences": {}
  }
}